:100000000C94E1000C9409010C9409010C94090171
:100010000C9409010C9409010C9409010C945704E7
:100020000C9409010C9409010C9409010C94090128
:100030000C9409010C9409010C9409010C94090118
:100040000C940B050C9409010C94D9040C94B30482
:100050000C9409010C9409010C9409010C940901F8
:100060000C9409010C94090100407A10F35A00A085
:10007000724E18090010A5D4E80000E87648170071
:1000800000E40B54020000CA9A3B000000E1F505B1
:10009000000080969800000040420F000000A086FB
:1000A00001000000102700000000E803000000002D
:1000B0006400000000000A000000000001000000D1
:1000C00000002C76D888DC674F0823DFC1DFAE59EB
:1000D000E1B1B796E5E3E453C63AE651997696E87E
:1000E000E6C28426EB898C9B62ED407C6FFCEFBC02
:1000F0009C9F40F2BAA56FA5F490055A2AF75C932D
:100100006B6CF9676DC11BFCE0E40D47FEF520E662
:10011000B500D0ED902E0300943577050080841E45
:10012000080000204E0A000000C80C333333330FA0
:10013000986E12831141EF8D2114893BE65516CF3D
:10014000FEE6DB18D1844B381BF77C1D901DA4BB49
:10015000E424203284725E228100C9F124ECA1E5FE
:100160003D2700000000240027002A0000000000B6
:1001700023002600290000000008000201000003FF
:100180000407000000000000000001020408102025
:100190004080010204081020010204081020000021
:1001A0000000250028002B000404040404040404B7
:1001B00002020202020203030303030302005505C5
:1001C000420811241FBECFEFD8E0DEBFCDBF22E032
:1001D000ACE9B1E001C01D92AB36B207E1F711E026
:1001E000A0E0B1E0E4ECFDE102C005900D92AC3975
:1001F000B107D9F710E0C0EED0E004C02197FE01AE
:100200000E94DD0CCF3DD107C9F70E9493050C94E5
:10021000D50E0C940000AF92BF92CF92DF92EF9276
:10022000FF920F931F93CF93DF936C017B018B01A0
:10023000040F151FEB015E01AE18BF08C017D107F0
:1002400059F06991D601ED91FC910190F081E02D7A
:10025000C6010995892B79F7C501DF91CF911F91CF
:100260000F91FF90EF90DF90CF90BF90AF900895E7
:1002700042E050E069E171E088EB91E00C940B0101
:10028000CF93DF93FC01448155816081718188EBBC
:1002900091E00E940B01EC010E9438018C0F9D1F20
:1002A000DF91CF910895FC01538D448D252F30E0CF
:1002B000842F90E0821B930B541710F0CF96089573
:1002C00001970895FC01918D828D981761F0A28DA0
:1002D000AE0FBF2FB11D5D968C91928D9F5F9F7366
:1002E000928F90E008958FEF9FEF0895FC01918D1C
:1002F000828D981731F0828DE80FF11D858D90E089
:1003000008958FEF9FEF0895FC01918D228D892F25
:1003100090E0805C9F4F821B91098F73992708950D
:1003200088EB91E00E94840121E0892B09F420E010
:10033000822F089580E090E0892B29F00E9490019F
:1003400081110C9400000895FC01A48DA80FB92F11
:10035000B11DA35ABF4F2C91848D90E001968F73ED
:100360009927848FA689B7892C93A089B1898C910C
:10037000837080648C93938D848D981306C002885B
:10038000F389E02D80818F7D80830895EF92FF9225
:100390000F931F93CF93DF93EC0181E0888F9B8DA8
:1003A0008C8D98131AC0E889F989808185FF15C062
:1003B0009FB7F894EE89FF896083E889F989808185
:1003C0008370806480839FBF81E090E0DF91CF9154
:1003D0001F910F91FF90EF900895F62E0B8D10E076
:1003E0000F5F1F4F0F731127E02E8C8D8E110CC0E5
:1003F0000FB607FCFACFE889F989808185FFF5CF30
:10040000CE010E94A401F1CFEB8DEC0FFD2FF11D69
:10041000E35AFF4FF0829FB7F8940B8FEA89FB896C
:1004200080818062CFCFCF93DF93EC01888D8823CA
:10043000B9F0AA89BB89E889F9898C9185FD03C047
:10044000808186FD0DC00FB607FCF7CF8C9185FF2C
:10045000F2CF808185FFEDCFCE010E94A401E9CFCC
:10046000DF91CF910895833081F028F4813099F0A5
:100470008230A9F008958730A9F08830C9F084301F
:10048000B1F4809180008F7D03C0809180008F77D0
:1004900080938000089584B58F7784BD089584B5D6
:1004A0008F7DFBCF8091B0008F778093B00008954F
:1004B0008091B0008F7DF9CF1F93CF93DF93282FCA
:1004C00030E0F901EA58FE4F8491F901E657FE4FFA
:1004D000D491F901E855FE4FC491CC23A9F0162F11
:1004E00081110E943302EC2FF0E0EE0FFF1FE25665
:1004F000FE4FA591B4918FB7F894EC91111108C0FB
:10050000D095DE23DC938FBFDF91CF911F910895AB
:10051000DE2BF8CF9091000189130BC0ECEBF1E0DA
:10052000E4919FEF90930001E13049F028F0E23030
:1005300061F060E00C945C0210926E00FACF909132
:100540006F009D7F90936F00F4CF909170009D7F1E
:100550009093700091E09093B0009091B100987FDB
:1005600094609093B1001092B300E3CFCF93DF93E8
:1005700090E0FC01E657FE4F249188559E4FFC0108
:1005800084918823D1F090E0880F991FFC01EE59E7
:10059000FE4FA591B491FC01E256FE4FC591D49156
:1005A00061110EC09FB7F8948C91E22FE0958E23D5
:1005B0008C932881E223E8839FBFDF91CF91089538
:1005C0008FB7F894EC91E22BEC938FBFF6CF8E505F
:1005D000806480937C0080917A00806480937A00AC
:1005E00080917A0086FDFCCF80917800909179000F
:1005F00008953FB7F8948091A1019091A201A09134
:10060000A301B091A40126B5A89B05C02F3F19F006
:100610000196A11DB11D3FBFBA2FA92F982F882782
:10062000BC01CD01620F711D811D911D42E0660F5D
:10063000771F881F991F4A95D1F708958F929F922F
:10064000AF92BF92CF92DF92EF92FF924B015C018B
:100650000E94F9026B017C010E94F9026C197D096C
:100660008E099F09683E734081059105A8F321E03A
:10067000821A9108A108B10888EEC80E83E0D81E3E
:10068000E11CF11C81149104A104B10429F7FF902D
:10069000EF90DF90CF90BF90AF909F908F90089594
:1006A0000F931F93CF93DF93EC018881998100977B
:1006B00059F02A813B812617370730F081E0DF911E
:1006C000CF911F910F9108958B016F5F7F4F0E9413
:1006D000080E009759F0998388831B830A832C8125
:1006E0003D81232B59F7FC011082E8CF80E0E7CF52
:1006F000CF93DF93EC0188819981009711F00E94DC
:100700007F0D198218821D821C821B821A82DF9142
:10071000CF910895EF92FF920F931F93CF93DF93A2
:10072000EC017B01198218821B821A821D821C82B5
:10073000FB0101900020E9F731978F01061B170B91
:10074000B8010E945003811109C0CE01DF91CF9101
:100750001F910F91FF90EF900C9478031D830C83F1
:10076000B70188819981DF91CF911F910F91FF90FF
:10077000EF900C94CE0EEF92FF920F931F93CF93B6
:10078000DF938C017B01EB0109900020E9F72197B1
:10079000C61BD70BBE010E945003811109C0C801BE
:1007A000DF91CF911F910F91FF90EF900C94780300
:1007B000F801D583C483B70180819181DF91CF9106
:1007C0001F910F91FF90EF900C94CE0EEF92FF923D
:1007D0000F931F93CF93DF93CDB7DEB7A1970FB6DB
:1007E000F894DEBF0FBECDBF7C01CB01BA01F7018B
:1007F0001182108213821282158214828E010F5F81
:100800001F4F22E044E00E944E08009789F0BC018F
:10081000C7010E94BB03A1960FB6F894DEBF0FBEBE
:10082000CDBFDF91CF911F910F91FF90EF90089571
:10083000C7010E947803EFCFEF92FF920F931F93AF
:10084000CF93DF93EC01FB01E080F180E114F10430
:1008500011F10481158101151105A9F08C819D818B
:10086000080F191FB801CE010E945003882399F088
:10087000288139818C819D81B701820F931F0E944D
:10088000CE0E1D830C83CE01DF91CF911F910F916E
:10089000FF90EF900895CE010E947803F4CFFC0101
:1008A00080819181009711F00C947F0D08951F9223
:1008B0000F920FB60F9211242F933F934F935F9394
:1008C0006F937F938F939F93AF93BF93EF93FF9318
:1008D0008091AA019091AB01A091AC01B091AD01C2
:1008E000892B8A2B8B2BD1F19091A501E091A60148
:1008F000F091A7018081892780838091AA0190913E
:10090000AB01A091AC01B091AD01181619061A0601
:100910001B069CF48091AA019091AB01A091AC01BF
:10092000B091AD010197A109B1098093AA019093FB
:10093000AB01A093AC01B093AD01FF91EF91BF91DA
:10094000AF919F918F917F916F915F914F913F9167
:100950002F910F900FBE0F901F901895809100015E
:100960000E948A02EACF1F920F920FB60F921124B3
:100970002F933F934F935F936F937F938F939F93A7
:10098000AF93BF93EF93FF9388EB91E00E94A40194
:10099000FF91EF91BF91AF919F918F917F916F9157
:1009A0005F914F913F912F910F900FBE0F901F902D
:1009B00018951F920F920FB60F9211242F938F93B9
:1009C0009F93EF93FF93E091C801F091C90180815B
:1009D000E091CE01F091CF0182FD1BC0908180910A
:1009E000D1018F5F8F732091D201821741F0E09186
:1009F000D101F0E0E854FE4F958F8093D101FF9133
:100A0000EF919F918F912F910F900FBE0F901F909C
:100A100018958081F4CF1F920F920FB60F92112478
:100A20002F933F938F939F93AF93BF9380919D019B
:100A300090919E01A0919F01B091A00130919C01E5
:100A400023E0230F2D3758F50196A11DB11D2093EA
:100A50009C0180939D0190939E01A0939F01B09370
:100A6000A0018091A1019091A201A091A301B09158
:100A7000A4010196A11DB11D8093A1019093A20133
:100A8000A093A301B093A401BF91AF919F918F91C7
:100A90003F912F910F900FBE0F901F90189526E851
:100AA000230F0296A11DB11DD2CFE8EBF1E0138216
:100AB000128288EE93E0A0E0B0E084839583A68361
:100AC000B7838BE091E09183808385EC90E09587FC
:100AD000848784EC90E09787868780EC90E0918B08
:100AE000808B81EC90E0938B828B82EC90E0958BF5
:100AF000848B86EC90E0978B868B118E128E138EF2
:100B0000148E6BE171E081E692E00E948A036BE152
:100B100071E08BE592E00E948A036BE171E085E56C
:100B200092E00C948A03CF93DF93CDB7DEB72C9776
:100B30000FB6F894DEBF0FBECDBF789484B5826047
:100B400084BD84B5816084BD85B5826085BD85B571
:100B5000816085BD80916E00816080936E001092EF
:100B6000810080918100826080938100809181006A
:100B700081608093810080918000816080938000FB
:100B80008091B10084608093B1008091B000816059
:100B90008093B00080917A00846080937A00809185
:100BA0007A00826080937A0080917A0081608093DD
:100BB0007A0080917A00806880937A001092C10058
:100BC00060E083E00E94B60260E08EE00E94B60220
:100BD00060E08FE00E94B60261E08DE00E94B60204
:100BE00061E082E00E94B60261E085E00E94B60208
:100BF000E091C801F091C90182E08083E091C401D5
:100C0000F091C5011082E091C601F091C7018FEC0F
:100C100080831092D001E091CC01F091CD0186E06B
:100C20008083E091CA01F091CB0180818061808353
:100C3000E091CA01F091CB01808188608083E091CE
:100C4000CA01F091CB01808180688083E091CA0164
:100C5000F091CB0180818F7D808358EE852E53E00B
:100C6000952EA12CB12C4FE8242E41E0342E68ECB7
:100C700070E080E090E00E941E03E9E7F1E08491DB
:100C8000EDE8F1E00491EBEAF1E01491112309F4AD
:100C9000B1C081110E943302E12FF0E0EE0FFF1F7F
:100CA000E459FE4FA591B4918C91082391E080E026
:100CB00009F490E0092F182F1093B7010093B601A3
:100CC0008EE00E94E702BC01990F880B990B0E94ED
:100CD000A50A20E030E040E85AE30E94040B20E03F
:100CE00030E44CE955E40E94040B20E030E040E29F
:100CF00051E40E94660C6B017C018FE00E94E702C8
:100D0000BC01990F880B990B0E94A50A20E030E0E6
:100D100040E85AE30E94040B21ED32E24BE15EE32E
:100D20000E94F90B2CE837E640ED5BE30E94660C6D
:100D30002B013C0129EC3EE84DE05BE3C701B60125
:100D40000E94040B9B01AC0162E27DEF86E89FE309
:100D50000E94F90B9B01AC01C301B2010E94660C19
:100D60002B013C010130110509F071C16CE171E00A
:100D700081E692E00E94BB0361E08DE00E945C028C
:100D800062E370E080E090E00E941E0360E082E099
:100D90000E945C0262E370E080E090E00E941E032B
:100DA00080910001853049F5ECEBF1E0149117FDDD
:100DB000C6C061E085E00E94B602112309F48FC02D
:100DC000123009F0A0C08091B100887F83608093C9
:100DD000B10089EF8093B3008092AA019092AB0199
:100DE000A092AC01B092AD018091700082608093BE
:100DF0007000A5C010E000E05FCF8F3F09F09FC0FA
:100E000085E080930001ECEBF1E014911F3F09F4C1
:100E100096C0113021F150F0123009F43EC017FD98
:100E20008EC061E085E00E94B602CACF14BC15BC3A
:100E300084B5826084BD85B5816085BDEDEAF1E051
:100E40008491E82FF0E0EE0FFF1FE256FE4F8591F0
:100E50009491F10184918093A90110E0AACF10929E
:100E600080001092810080918100886080938100D1
:100E700080918100816080938100EDEAF1E08491AE
:100E8000E82FF0E0EE0FFF1FE256FE4F85919491A0
:100E9000F10184918093A8018CCF1092B000109240
:100EA000B1008091B00082608093B0008091B10069
:100EB00081608093B100EDEAF1E08491E82FF0E0E9
:100EC000EE0FFF1FE256FE4F859194919093A7017C
:100ED0008093A601F10184918093A5016ACF85B525
:100EE000887F836085BD8CE787BD8092B201909238
:100EF000B301A092B401B092B50180916E008260FE
:100F000080936E001CC0113009F099C0809181005F
:100F1000887F8160809381008FE39FE190938900B7
:100F2000809388008092AE019092AF01A092B001B0
:100F3000B092B10180916F00826080936F0062E394
:100F400070E080E090E00E941E0385E00E948A022B
:100F500020E030E044E652E4C701B6010E94D80C1C
:100F6000181654F469E471E08BE592E00E94BB032B
:100F70008BE592E00E94400120E030E040EA52E43C
:100F8000C301B2010E94D80C87FD0AC061E671E07E
:100F900085E592E00E94BB0385E592E00E94400156
:100FA0000E9438010E943801B701A601CE010196C6
:100FB0000E94E60364E871E0CE0107960E948A036E
:100FC000BE016F5F7F4FCE0107960E941C040E94F6
:100FD0004001CE0107960E944F04CE0101960E9467
:100FE0004F04B301A201CE0101960E94E60361E91C
:100FF00071E0CE0107960E948A03BE016F5F7F4FAA
:10100000CE0107960E941C040E944001CE01079663
:101010000E944F04CE0101960E944F0481E692E0A7
:101020000E944001E0E0F0E0EF2B09F420CE0E94A6
:101030009001882309F41BCE0E94000014CE1230C8
:1010400021F011117CCF8FE34FCF8FE3C3CE67E345
:1010500071E081E692E00E94BB0361E082E00E94C1
:101060005C0262E370E080E090E00E941E0360E0BA
:101070008DE00E945C0262E370E080E090E00E94FC
:101080001E0366CF85E592E00E944F048BE592E057
:101090000E944F0481E692E00C944F04EF920F936C
:1010A0001F93CF93DF93E80134E047FD34E1042E32
:1010B000000C550B57FF03C0519541955109E32E84
:1010C000022F242FAE010E946C08CE01DF91CF9138
:1010D0001F910F91EF900895A9E0B0E0E2E7F8E0EA
:1010E0000C94C80B6A01F22EB02E102FFBE3AF2E2A
:1010F000A01608F41BE31F5F012F27E0AE014F5F2E
:101100005F4F0E94CB09BC018981982F9970913063
:1011100009F43FC09BE2E1FC04C09E2D9170E0FC0D
:101120003AC05E2D5071E82FE87083FF46C084E01E
:10113000911101C083E0EF2DE81B8F1508F0E0E06E
:10114000D6018E2F20E2552351F1992329F0D601A3
:101150009C93C60101966C0196012D5F3F4FE2FE04
:1011600024C08EE4D6018C9391E411969C93119740
:1011700012968C93D9018E2F90E281111BC0E20F41
:10118000F32FF11D10828EEF9FEF2996ECE00C9467
:10119000E40B9DE2C6CF90E2C4CF2D938150811124
:1011A000FCCFCE0ED11CE0E0D0CF8EE6D6018C93E2
:1011B00091E6DBCF9D938150E0CF482F447082FFB2
:1011C0003DC084E0911101C083E08F1510F4EF2D34
:1011D000E81BD6018E2F20E2552309F1992329F02F
:1011E000D6019C93C60101966C0196012D5F3F4F7D
:1011F000E2FE1BC089E4D6018C938EE411968C9399
:10120000119786E412968C93D9018E2F90E2882351
:1012100009F4B5CF9D938150FACF2D938150811160
:10122000FCCFCE0ED11CE0E0D9CF89E6D6018C935D
:101230008EE611968C93119786E6E4CF9B0177FF9B
:1012400002C030E020E0A1E0B0E0911102C0B0E0C7
:10125000A0E0F9013196AE0FBF1F8B2C912CBB2063
:1012600009F461C05401EFEFAE1ABE0AAA0DBB1D0E
:10127000FA161B0619F014F04F2D4A1B511188C0A5
:10128000E3FC59C07601A42FB0E2A1114FC0C40EF7
:10129000D11C992309F45BC040E0D6011196F601F8
:1012A00090836D01552309F448C0012F060F9A81E0
:1012B000582F507184FF03C0913309F40150101668
:1012C0000CF047C0093008F008E0EEE2FE2E5B01AA
:1012D000A01AB10885019194819491082F3F32079B
:1012E00029F4D601FC92F60131966F01621773075B
:1012F00094F1021713077CF5DB01A21BB30BAA24A0
:10130000A394B12CAC0EBD1EAA0DBB1D11968C91E1
:1013100021503109D601119628153905F4F0F6014E
:1013200080836D01DBCFB12CA12CA0CFF701B1934D
:101330007F01A150AACF9111B0CFD601942F50E3D5
:1013400002C05D9391509111FCCFC40ED11C40E0BE
:10135000ACCF01E0BACF80E3DBCF6217730731F483
:10136000963388F4953311F4552369F0F6018083A0
:10137000FD01842F90E2811108C0A40FB11D1C92C1
:1013800090E080E002CF81E3F1CF91938150F3CFE1
:10139000911183CF8ACF283008F027E03327DA0174
:1013A000990F311D87FD916000966105710539F433
:1013B00032602E5F3D9330E32A95E1F708959F3F19
:1013C00030F080387105610509F03C5F3C5F3D936A
:1013D000913008F08068911DDF93CF931F930F9396
:1013E000FF92EF92192F987F9695E92F96959695F3
:1013F000E90FFF27EE53FF4F99273327EE24FF24F1
:10140000A701E70105900894079428F4360FE71E1A
:10141000F81E491F511D660F771F881F991F0694DC
:10142000A1F70590079428F4E70EF81E491F561FF0
:10143000C11D770F881F991F661F0694A1F705909D
:10144000079428F4F80E491F561FC71FD11D880F97
:10145000991F661F771F0694A1F70590079420F443
:10146000490F561FC71FD81F990F661F771F881F68
:101470000694A9F784911095177041F0D695C795F9
:1014800057954795F794E7941A95C1F7E8E6F0E089
:1014900068941590159135916591959105907FE22D
:1014A0007395E118F10A430B560BC90BD009C0F72D
:1014B000E10CF11E431F561FC91FD01D7EF470336F
:1014C00011F48A95E6CFE894015030F0080F0AF441
:1014D0000027021708F4202F2395022F7A3328F0D3
:1014E00079E37D932A95E9F710C07D932A9589F6D3
:1014F000069497956795379517951794E118F10A13
:10150000430B560BC90BD00998F023957E91739528
:101510007A3308F070E37C932013B8F77E91706102
:101520007D9330F0839571E37D9370E32A95E1F725
:101530001124EF90FF900F911F91CF91DF91992788
:1015400087FD90950895E89409C097FB3EF4909527
:101550008095709561957F4F8F4F9F4F9923A9F08C
:10156000F92F96E9BB279395F6958795779567951B
:10157000B795F111F8CFFAF4BB0F11F460FF1BC05F
:101580006F5F7F4F8F4F9F4F16C0882311F096E9F2
:1015900011C0772321F09EE8872F762F05C06623A0
:1015A00071F096E8862F70E060E02AF09A95660F59
:1015B000771F881FDAF7880F9695879597F9089512
:1015C000990F0008550FAA0BE0E8FEEF1616170654
:1015D000E807F907C0F012161306E407F50798F0BC
:1015E000621B730B840B950B39F40A2661F0232BD5
:1015F000242B252B21F408950A2609F4A140A69551
:101600008FEF811D811D08950E94170B0C94880B8C
:101610000E947A0B38F00E94810B20F0952311F084
:101620000C94710B0C94770B11240C94BC0B0E943E
:10163000990B70F3959FC1F3950F50E0551F629F72
:10164000F001729FBB27F00DB11D639FAA27F00D1B
:10165000B11DAA1F649F6627B00DA11D661F829F42
:101660002227B00DA11D621F739FB00DA11D621F27
:10167000839FA00D611D221F749F3327A00D611D44
:10168000231F849F600D211D822F762F6A2F112426
:101690009F5750409AF0F1F088234AF0EE0FFF1F59
:1016A000BB1F661F771F881F91505040A9F79E3FB0
:1016B000510580F00C94710B0C94BC0B5F3FE4F36C
:1016C000983ED4F3869577956795B795F795E79506
:1016D0009F5FC1F7FE2B880F911D9695879597F90F
:1016E000089597F99F6780E870E060E008959FEFA4
:1016F00080EC089500240A941616170618060906A9
:10170000089500240A941216130614060506089577
:10171000092E0394000C11F4882352F0BB0F40F4FF
:10172000BF2B11F460FF04C06F5F7F4F8F4F9F4F3F
:10173000089557FD9058440F551F59F05F3F71F0C1
:101740004795880F97FB991F61F09F3F79F0879528
:101750000895121613061406551FF2CF4695F1DFB1
:1017600008C0161617061806991FF1CF8695710541
:10177000610508940895E894BB2766277727CB0175
:1017800097F908952F923F924F925F926F927F92B6
:101790008F929F92AF92BF92CF92DF92EF92FF9281
:1017A0000F931F93CF93DF93CDB7DEB7CA1BDB0B2D
:1017B0000FB6F894DEBF0FBECDBF09942A883988D2
:1017C00048885F846E847D848C849B84AA84B984D9
:1017D000C884DF80EE80FD800C811B81AA81B981E5
:1017E000CE0FD11D0FB6F894DEBF0FBECDBFED01F9
:1017F00008955058BB27AA270E94110C0C94880BFF
:101800000E947A0B38F00E94810B20F039F49F3F40
:1018100019F426F40C94770B0EF4E095E7FB0C9486
:10182000710BE92F0E94990B58F3BA1762077307DF
:101830008407950720F079F4A6F50C94BB0B0EF401
:10184000E0950B2EBA2FA02D0B01B90190010C01D0
:10185000CA01A0011124FF27591B99F0593F50F4E8
:10186000503E68F11A16F040A22F232F342F442740
:10187000585FF3CF469537952795A795F040539538
:10188000C9F77EF41F16BA0B620B730B840BBAF008
:101890009150A1F0FF0FBB1F661F771F881FC2F773
:1018A0000EC0BA0F621F731F841F48F48795779587
:1018B0006795B795F7959E3F08F0B0CF9395880F41
:1018C00008F09927EE0F9795879508950E947A0C56
:1018D0000C94880B0E94810B58F00E947A0B40F008
:1018E00029F45F3F29F00C94710B51110C94BC0B3F
:1018F0000C94770B0E94990B68F39923B1F355234D
:1019000091F3951B550BBB27AA2762177307840712
:1019100038F09F5F5F4F220F331F441FAA1FA9F3A8
:1019200035D00E2E3AF0E0E832D091505040E69596
:10193000001CCAF72BD0FE2F29D0660F771F881FF7
:10194000BB1F261737074807AB07B0E809F0BB0BEA
:10195000802DBF01FF2793585F4F3AF09E3F5105FE
:1019600078F00C94710B0C94BC0B5F3FE4F3983E41
:10197000D4F3869577956795B795F7959F5FC9F7E7
:10198000880F911D9695879597F90895E1E0660F68
:10199000771F881FBB1F621773078407BA0720F0E1
:1019A000621B730B840BBA0BEE1F88F7E09508954A
:1019B0000E94E00A08F48FEF0895EE0FFF1F0590D4
:1019C000F491E02D09940F931F93CF93DF9382300E
:1019D000910510F482E090E0E0916902F0916A02D2
:1019E00030E020E0B0E0A0E0309799F42115310517
:1019F00009F44AC0281B390B24303105D8F58A81F7
:101A00009B816115710589F1FB0193838283FE013E
:101A100011C0408151810281138148175907E0F0BC
:101A20004817590799F4109761F012960C93129782
:101A300013961C933296CF01DF91CF911F910F9196
:101A400008950093690210936A02F4CF21153105BD
:101A500051F04217530738F0A901DB019A01BD018B
:101A6000DF01F801C1CFEF01F9CF90936A028093B3
:101A70006902CDCFFE01E20FF31F819391932250B3
:101A8000310939832883D7CF2091670230916802CA
:101A9000232B41F42091030130910401309368021B
:101AA0002093670220910101309102012115310537
:101AB00041F42DB73EB74091050150910601241B1A
:101AC000350BE0916702F0916802E217F307A0F48A
:101AD0002E1B3F0B2817390778F0AC014E5F5F4F84
:101AE0002417350748F04E0F5F1F5093680240934C
:101AF0006702819391939FCFF0E0E0E09CCFCF937A
:101B0000DF930097E9F0FC01329713821282A091D3
:101B10006902B0916A02ED0130E020E01097A1F473
:101B200020813181820F931F2091670230916802DA
:101B30002817390709F061C0F0936802E093670243
:101B4000DF91CF910895EA01CE17DF07E8F54A81CA
:101B50005B819E0141155105B1F7E901FB83EA83E1
:101B600049915991C40FD51FEC17FD0761F480818D
:101B700091810296840F951FE90199838883828160
:101B800093819B838A83F0E0E0E012968D919C9193
:101B900013970097B9F52D913C911197CD010296BD
:101BA000820F931F2091670230916802281739072E
:101BB00039F6309751F510926A0210926902B0938B
:101BC0006802A0936702BCCFD383C2834081518156
:101BD000840F951FC817D90761F44E5F5F4F888146
:101BE0009981480F591F518340838A819B81938338
:101BF00082832115310509F0B0CFF0936A02E0939A
:101C000069029ECFFD01DC01C0CF13821282D7CFC3
:101C1000B0E0A0E0EEE0FEE00C94C40B8C01009775
:101C200051F4CB010E94E30C8C01C801CDB7DEB7A3
:101C3000E0E10C94E00BFC01E60FF71F9C01225041
:101C40003109E217F30708F49DC0D901CD91DC9169
:101C50001197C617D70798F0C530D10530F3CE01DC
:101C600004978617970708F3C61BD70B2297C193D3
:101C7000D1936D937C93CF010E947F0DD6CF5B01F2
:101C8000AC1ABD0A4C018C0E9D1EA0916902B09148
:101C90006A02512C412CF12CE12C109731F58091E6
:101CA0006702909168028815990509F05CC0461694
:101CB000570608F058C080910101909102010097E9
:101CC00041F48DB79EB74091050150910601841BE8
:101CD000950BE817F90708F055C0F0936802E093F8
:101CE0006702F90171836083A0CF8D919C91119758
:101CF00012966C90129713967C901397A815B905BD
:101D000059F56C0142E0C40ED11CCA14DB0420F169
:101D1000AC014A195B09DA011296159780F06282CC
:101D2000738251834083D9016D937C93E114F10454
:101D300071F0D7011396FC93EE93129776CF22960B
:101D40008C0F9D1FF90191838083F301EFCFF093F6
:101D50006A02E093690269CF4816590608F42C011B
:101D60007D01D3019ACFCB010E94E30C7C01009747
:101D700049F0AE01B8010E94C50EC8010E947F0D56
:101D8000870153CF10E000E050CFFB01DC0102C01F
:101D900001900D9241505040D8F70895FB01DC01AD
:101DA00001900D920020E1F7089510E0C0EED0E020
:101DB00004C0FE010E94DD0C2196C13ED107C9F787
:041DC000F894FFCFC5
:101DC400FF00006B02800000000000C6010B0153FD
:101DD4000113028401620176010D0A00536D6F6BD9
:101DE4006520446574656374656420466972652082
:101DF400416C65727421004E6F20536D6F6B6520CA
:101E040044657465637465640054656D70726174CF
:101E140075726520697320746F6F20686967682123
:101E24000048756D696469747920657863656564D3
:101E34006564206E6F726D616C20636F6E6469748B
:101E44006F6E210054656D70726174757265203A0D
:0C1E54000048756D6964697479203A00DB
:00000001FF
